{
  "_format": "hh3-artifact-1",
  "contractName": "EncoderHelper",
  "sourceName": "contracts/helper/EncoderHelper.sol",
  "abi": [
    {
      "inputs": [
        {
          "internalType": "uint256",
          "name": "value",
          "type": "uint256"
        }
      ],
      "name": "encodeUint64",
      "outputs": [
        {
          "internalType": "bytes",
          "name": "",
          "type": "bytes"
        }
      ],
      "stateMutability": "pure",
      "type": "function"
    }
  ],
  "bytecode": "0x610104610034600b8282823980515f1a607314602857634e487b7160e01b5f525f60045260245ffd5b305f52607381538281f3fe73000000000000000000000000000000000000000030146080604052600436106032575f3560e01c80630e6d26f7146036575b5f5ffd5b604560413660046083565b6059565b604051605091906099565b60405180910390f35b606081604051602001606d91815260200190565b6040516020818303038152906040529050919050565b5f602082840312156092575f5ffd5b5035919050565b602081525f82518060208401528060208501604085015e5f604082850101526040601f19601f8301168401019150509291505056fea26469706673582212207782138556f877b8e4603df2599e8feeb6a9a0cfec7e34c6336d3d10ba719f2964736f6c634300081c0033",
  "linkReferences": {},
  "deployedLinkReferences": {},
  "immutableReferences": {},
  "inputSourceName": "project/contracts/helper/EncoderHelper.sol",
  "buildInfoId": "solc-0_8_28-d5a5b90ef034815672cabd8fa9c4511e29dc0c63"
}