{
  "_format": "hh3-artifact-1",
  "contractName": "LinkToken",
  "sourceName": "contracts/mocks/LinkToken.sol",
  "abi": [
    {
      "inputs": [],
      "stateMutability": "nonpayable",
      "type": "constructor"
    },
    {
      "anonymous": false,
      "inputs": [
        {
          "indexed": true,
          "internalType": "address",
          "name": "owner",
          "type": "address"
        },
        {
          "indexed": true,
          "internalType": "address",
          "name": "spender",
          "type": "address"
        },
        {
          "indexed": false,
          "internalType": "uint256",
          "name": "amount",
          "type": "uint256"
        }
      ],
      "name": "Approval",
      "type": "event"
    },
    {
      "anonymous": false,
      "inputs": [
        {
          "indexed": true,
          "internalType": "address",
          "name": "from",
          "type": "address"
        },
        {
          "indexed": true,
          "internalType": "address",
          "name": "to",
          "type": "address"
        },
        {
          "indexed": false,
          "internalType": "uint256",
          "name": "amount",
          "type": "uint256"
        }
      ],
      "name": "Transfer",
      "type": "event"
    },
    {
      "anonymous": false,
      "inputs": [
        {
          "indexed": true,
          "internalType": "address",
          "name": "from",
          "type": "address"
        },
        {
          "indexed": true,
          "internalType": "address",
          "name": "to",
          "type": "address"
        },
        {
          "indexed": false,
          "internalType": "uint256",
          "name": "value",
          "type": "uint256"
        },
        {
          "indexed": false,
          "internalType": "bytes",
          "name": "data",
          "type": "bytes"
        }
      ],
      "name": "Transfer",
      "type": "event"
    },
    {
      "inputs": [],
      "name": "DOMAIN_SEPARATOR",
      "outputs": [
        {
          "internalType": "bytes32",
          "name": "",
          "type": "bytes32"
        }
      ],
      "stateMutability": "view",
      "type": "function"
    },
    {
      "inputs": [
        {
          "internalType": "address",
          "name": "",
          "type": "address"
        },
        {
          "internalType": "address",
          "name": "",
          "type": "address"
        }
      ],
      "name": "allowance",
      "outputs": [
        {
          "internalType": "uint256",
          "name": "",
          "type": "uint256"
        }
      ],
      "stateMutability": "view",
      "type": "function"
    },
    {
      "inputs": [
        {
          "internalType": "address",
          "name": "spender",
          "type": "address"
        },
        {
          "internalType": "uint256",
          "name": "amount",
          "type": "uint256"
        }
      ],
      "name": "approve",
      "outputs": [
        {
          "internalType": "bool",
          "name": "",
          "type": "bool"
        }
      ],
      "stateMutability": "nonpayable",
      "type": "function"
    },
    {
      "inputs": [
        {
          "internalType": "address",
          "name": "",
          "type": "address"
        }
      ],
      "name": "balanceOf",
      "outputs": [
        {
          "internalType": "uint256",
          "name": "",
          "type": "uint256"
        }
      ],
      "stateMutability": "view",
      "type": "function"
    },
    {
      "inputs": [],
      "name": "decimals",
      "outputs": [
        {
          "internalType": "uint8",
          "name": "",
          "type": "uint8"
        }
      ],
      "stateMutability": "view",
      "type": "function"
    },
    {
      "inputs": [
        {
          "internalType": "address",
          "name": "to",
          "type": "address"
        },
        {
          "internalType": "uint256",
          "name": "value",
          "type": "uint256"
        }
      ],
      "name": "mint",
      "outputs": [],
      "stateMutability": "nonpayable",
      "type": "function"
    },
    {
      "inputs": [],
      "name": "name",
      "outputs": [
        {
          "internalType": "string",
          "name": "",
          "type": "string"
        }
      ],
      "stateMutability": "view",
      "type": "function"
    },
    {
      "inputs": [
        {
          "internalType": "address",
          "name": "",
          "type": "address"
        }
      ],
      "name": "nonces",
      "outputs": [
        {
          "internalType": "uint256",
          "name": "",
          "type": "uint256"
        }
      ],
      "stateMutability": "view",
      "type": "function"
    },
    {
      "inputs": [
        {
          "internalType": "address",
          "name": "owner",
          "type": "address"
        },
        {
          "internalType": "address",
          "name": "spender",
          "type": "address"
        },
        {
          "internalType": "uint256",
          "name": "value",
          "type": "uint256"
        },
        {
          "internalType": "uint256",
          "name": "deadline",
          "type": "uint256"
        },
        {
          "internalType": "uint8",
          "name": "v",
          "type": "uint8"
        },
        {
          "internalType": "bytes32",
          "name": "r",
          "type": "bytes32"
        },
        {
          "internalType": "bytes32",
          "name": "s",
          "type": "bytes32"
        }
      ],
      "name": "permit",
      "outputs": [],
      "stateMutability": "nonpayable",
      "type": "function"
    },
    {
      "inputs": [],
      "name": "symbol",
      "outputs": [
        {
          "internalType": "string",
          "name": "",
          "type": "string"
        }
      ],
      "stateMutability": "view",
      "type": "function"
    },
    {
      "inputs": [],
      "name": "totalSupply",
      "outputs": [
        {
          "internalType": "uint256",
          "name": "",
          "type": "uint256"
        }
      ],
      "stateMutability": "view",
      "type": "function"
    },
    {
      "inputs": [
        {
          "internalType": "address",
          "name": "to",
          "type": "address"
        },
        {
          "internalType": "uint256",
          "name": "amount",
          "type": "uint256"
        }
      ],
      "name": "transfer",
      "outputs": [
        {
          "internalType": "bool",
          "name": "",
          "type": "bool"
        }
      ],
      "stateMutability": "nonpayable",
      "type": "function"
    },
    {
      "inputs": [
        {
          "internalType": "address",
          "name": "_to",
          "type": "address"
        },
        {
          "internalType": "uint256",
          "name": "_value",
          "type": "uint256"
        },
        {
          "internalType": "bytes",
          "name": "_data",
          "type": "bytes"
        }
      ],
      "name": "transferAndCall",
      "outputs": [
        {
          "internalType": "bool",
          "name": "success",
          "type": "bool"
        }
      ],
      "stateMutability": "nonpayable",
      "type": "function"
    },
    {
      "inputs": [
        {
          "internalType": "address",
          "name": "from",
          "type": "address"
        },
        {
          "internalType": "address",
          "name": "to",
          "type": "address"
        },
        {
          "internalType": "uint256",
          "name": "amount",
          "type": "uint256"
        }
      ],
      "name": "transferFrom",
      "outputs": [
        {
          "internalType": "bool",
          "name": "",
          "type": "bool"
        }
      ],
      "stateMutability": "nonpayable",
      "type": "function"
    }
  ],
  "bytecode": "0x60e060405234801561000f575f5ffd5b50604051806040016040528060098152602001682634b735aa37b5b2b760b91b815250604051806040016040528060048152602001634c494e4b60e01b8152506012825f908161005f919061023a565b50600161006c838261023a565b5060ff81166080524660a0526100806100a1565b60c0525061009c915033905069d3c21bcecceda1000000610139565b61038a565b5f7f8b73c3c69bb8fe3d512ecc4cf759cc79239f7b179b0ffacaa9a75d522b39400f5f6040516100d191906102f4565b6040805191829003822060208301939093528101919091527fc89efdaa54c0f20c7adf612882df0950f5a951637e0307cdcb4c672f298b8bc660608201524660808201523060a082015260c00160405160208183030381529060405280519060200120905090565b8060025f82825461014a9190610365565b90915550506001600160a01b0382165f818152600360209081526040808320805486019055518481527fddf252ad1be2c89b69c2b068fc378daa952ba7f163c4a11628f55a4df523b3ef910160405180910390a35050565b634e487b7160e01b5f52604160045260245ffd5b600181811c908216806101ca57607f821691505b6020821081036101e857634e487b7160e01b5f52602260045260245ffd5b50919050565b601f82111561023557805f5260205f20601f840160051c810160208510156102135750805b601f840160051c820191505b81811015610232575f815560010161021f565b50505b505050565b81516001600160401b03811115610253576102536101a2565b6102678161026184546101b6565b846101ee565b6020601f821160018114610299575f83156102825750848201515b5f19600385901b1c1916600184901b178455610232565b5f84815260208120601f198516915b828110156102c857878501518255602094850194600190920191016102a8565b50848210156102e557868401515f19600387901b60f8161c191681555b50505050600190811b01905550565b5f5f8354610301816101b6565b600182168015610318576001811461032d5761035a565b60ff198316865281151582028601935061035a565b865f5260205f205f5b8381101561035257815488820152600190910190602001610336565b505081860193505b509195945050505050565b8082018082111561038457634e487b7160e01b5f52601160045260245ffd5b92915050565b60805160a05160c051610d2e6103b45f395f61046f01525f61043a01525f6101590152610d2e5ff3fe608060405234801561000f575f5ffd5b50600436106100e5575f3560e01c806340c10f191161008857806395d89b411161006357806395d89b41146101fb578063a9059cbb14610203578063d505accf14610216578063dd62ed3e14610229575f5ffd5b806340c10f19146101a857806370a08231146101bd5780637ecebe00146101dc575f5ffd5b806323b872dd116100c357806323b872dd14610141578063313ce567146101545780633644e5151461018d5780634000aea014610195575f5ffd5b806306fdde03146100e9578063095ea7b31461010757806318160ddd1461012a575b5f5ffd5b6100f1610253565b6040516100fe919061096e565b60405180910390f35b61011a6101153660046109a2565b6102de565b60405190151581526020016100fe565b61013360025481565b6040519081526020016100fe565b61011a61014f3660046109ca565b61034a565b61017b7f000000000000000000000000000000000000000000000000000000000000000081565b60405160ff90911681526020016100fe565b610133610437565b61011a6101a3366004610a18565b610491565b6101bb6101b63660046109a2565b610506565b005b6101336101cb366004610ae4565b60036020525f908152604090205481565b6101336101ea366004610ae4565b60056020525f908152604090205481565b6100f1610514565b61011a6102113660046109a2565b610521565b6101bb610224366004610afd565b610597565b610133610237366004610b6a565b600460209081525f928352604080842090915290825290205481565b5f805461025f90610b9b565b80601f016020809104026020016040519081016040528092919081815260200182805461028b90610b9b565b80156102d65780601f106102ad576101008083540402835291602001916102d6565b820191905f5260205f20905b8154815290600101906020018083116102b957829003601f168201915b505050505081565b335f8181526004602090815260408083206001600160a01b038716808552925280832085905551919290917f8c5be1e5ebec7d5bd14f71427d1e84f3dd0314c0f7b2291e5b200ac8c7c3b925906103389086815260200190565b60405180910390a35060015b92915050565b6001600160a01b0383165f9081526004602090815260408083203384529091528120545f1981146103a35761037f8382610be7565b6001600160a01b0386165f9081526004602090815260408083203384529091529020555b6001600160a01b0385165f90815260036020526040812080548592906103ca908490610be7565b90915550506001600160a01b038085165f81815260036020526040908190208054870190555190918716907fddf252ad1be2c89b69c2b068fc378daa952ba7f163c4a11628f55a4df523b3ef906104249087815260200190565b60405180910390a3506001949350505050565b5f7f0000000000000000000000000000000000000000000000000000000000000000461461046c576104676107da565b905090565b507f000000000000000000000000000000000000000000000000000000000000000090565b5f61049c8484610521565b50836001600160a01b0316336001600160a01b03167fe19260aff97b920c7df27010903aeb9c8d2be5d310a2c67824cf3f15396e4c1685856040516104e2929190610bfa565b60405180910390a3833b156104fc576104fc848484610872565b5060019392505050565b61051082826108d7565b5050565b6001805461025f90610b9b565b335f90815260036020526040812080548391908390610541908490610be7565b90915550506001600160a01b0383165f81815260036020526040908190208054850190555133907fddf252ad1be2c89b69c2b068fc378daa952ba7f163c4a11628f55a4df523b3ef906103389086815260200190565b428410156105ec5760405162461bcd60e51b815260206004820152601760248201527f5045524d49545f444541444c494e455f4558504952454400000000000000000060448201526064015b60405180910390fd5b5f60016105f7610437565b6001600160a01b038a81165f8181526005602090815260409182902080546001810190915582517f6e71edae12b1b97f4d1f60370fef10105fa2faae0126114a169c64845d6126c98184015280840194909452938d166060840152608083018c905260a083019390935260c08083018b90528151808403909101815260e08301909152805192019190912061190160f01b6101008301526101028201929092526101228101919091526101420160408051601f1981840301815282825280516020918201205f84529083018083525260ff871690820152606081018590526080810184905260a0016020604051602081039080840390855afa1580156106ff573d5f5f3e3d5ffd5b5050604051601f1901519150506001600160a01b038116158015906107355750876001600160a01b0316816001600160a01b0316145b6107725760405162461bcd60e51b815260206004820152600e60248201526d24a72b20a624a22fa9a4a3a722a960911b60448201526064016105e3565b6001600160a01b039081165f9081526004602090815260408083208a8516808552908352928190208990555188815291928a16917f8c5be1e5ebec7d5bd14f71427d1e84f3dd0314c0f7b2291e5b200ac8c7c3b925910160405180910390a350505050505050565b5f7f8b73c3c69bb8fe3d512ecc4cf759cc79239f7b179b0ffacaa9a75d522b39400f5f60405161080a9190610c1a565b6040805191829003822060208301939093528101919091527fc89efdaa54c0f20c7adf612882df0950f5a951637e0307cdcb4c672f298b8bc660608201524660808201523060a082015260c00160405160208183030381529060405280519060200120905090565b604051635260769b60e11b815283906001600160a01b0382169063a4c0ed36906108a490339087908790600401610cb6565b5f604051808303815f87803b1580156108bb575f5ffd5b505af11580156108cd573d5f5f3e3d5ffd5b5050505050505050565b8060025f8282546108e89190610ce5565b90915550506001600160a01b0382165f818152600360209081526040808320805486019055518481527fddf252ad1be2c89b69c2b068fc378daa952ba7f163c4a11628f55a4df523b3ef910160405180910390a35050565b5f81518084528060208401602086015e5f602082860101526020601f19601f83011685010191505092915050565b602081525f6109806020830184610940565b9392505050565b80356001600160a01b038116811461099d575f5ffd5b919050565b5f5f604083850312156109b3575f5ffd5b6109bc83610987565b946020939093013593505050565b5f5f5f606084860312156109dc575f5ffd5b6109e584610987565b92506109f360208501610987565b929592945050506040919091013590565b634e487b7160e01b5f52604160045260245ffd5b5f5f5f60608486031215610a2a575f5ffd5b610a3384610987565b925060208401359150604084013567ffffffffffffffff811115610a55575f5ffd5b8401601f81018613610a65575f5ffd5b803567ffffffffffffffff811115610a7f57610a7f610a04565b604051601f8201601f19908116603f0116810167ffffffffffffffff81118282101715610aae57610aae610a04565b604052818152828201602001881015610ac5575f5ffd5b816020840160208301375f602083830101528093505050509250925092565b5f60208284031215610af4575f5ffd5b61098082610987565b5f5f5f5f5f5f5f60e0888a031215610b13575f5ffd5b610b1c88610987565b9650610b2a60208901610987565b95506040880135945060608801359350608088013560ff81168114610b4d575f5ffd5b9699959850939692959460a0840135945060c09093013592915050565b5f5f60408385031215610b7b575f5ffd5b610b8483610987565b9150610b9260208401610987565b90509250929050565b600181811c90821680610baf57607f821691505b602082108103610bcd57634e487b7160e01b5f52602260045260245ffd5b50919050565b634e487b7160e01b5f52601160045260245ffd5b8181038181111561034457610344610bd3565b828152604060208201525f610c126040830184610940565b949350505050565b5f5f83545f8160011c90506001821680610c3557607f821691505b602082108103610c5357634e487b7160e01b5f52602260045260245ffd5b808015610c675760018114610c7c57610caa565b60ff1984168752821515830287019450610caa565b5f888152602090205f5b84811015610ca257815489820152600190910190602001610c86565b505082870194505b50929695505050505050565b60018060a01b0384168152826020820152606060408201525f610cdc6060830184610940565b95945050505050565b8082018082111561034457610344610bd356fea26469706673582212202b338431287774cc086346319d7160187c3e25fc93675ce00b1aa07cda65dd3164736f6c634300081c0033",
  "linkReferences": {},
  "deployedLinkReferences": {},
  "immutableReferences": {
    "24": [
      {
        "length": 32,
        "start": 345
      }
    ],
    "38": [
      {
        "length": 32,
        "start": 1082
      }
    ],
    "40": [
      {
        "length": 32,
        "start": 1135
      }
    ]
  },
  "inputSourceName": "project/contracts/mocks/LinkToken.sol",
  "buildInfoId": "solc-0_8_28-cda9a241a59f5d00496442982a5374944520b7d9"
}